:020000040800F2
:10000000F0060020A9010008B1010008B3010008B2
:10001000B5010008B7010008B901000800000000A0
:10002000000000000000000000000000BB0100080C
:10003000BD01000800000000BF010008C101000868
:10004000C3010008C3010008C3010008C301000880
:10005000C3010008C3010008011500082D150008A0
:10006000C3010008C3010008C3010008C301000860
:10007000C3010008C3010008C3010008C301000850
:10008000C3010008C3010008C3010008C301000840
:10009000C3010008C3010008C3010008C301000830
:1000A000C3010008C3010008C3010008C301000820
:1000B000C3010008C3010008C3010008C301000810
:1000C000C3010008C3010008C3010008C301000800
:1000D000C3010008C3010008C3010008C3010008F0
:1000E000C3010008C3010008C301000800F002F8C2
:1000F00000F04AF80AA090E8000C82448344AAF178
:100100000107DA4501D100F03FF8AFF2090EBAE875
:100110000F0013F0010F18BFFB1A43F0010318473B
:10012000CC400000EC400000103A24BF78C878C1F1
:10013000FAD8520724BF30C830C144BF04680C60ED
:10014000704700000023002400250026103A28BF35
:1001500078C1FBD8520728BF30C148BF0B60704739
:10016000662903F03687642900F05280002070472A
:100170001FB500F0A5FB04000020002102F0F2FEF4
:10018000E0601FBD10B510BD00F09EFC1146FFF7EA
:10019000EFFF02F023F800F0BCFC03B4FFF7F2FF1E
:1001A00003BC00F0FFFC00000948804709480047F5
:1001B000FEE7FEE7FEE7FEE7FEE7FEE7FEE7FEE717
:1001C000FEE7FEE704480549054A064B7047000074
:1001D000151D0008ED000008F0000020F0060020CA
:1001E000F0020020F00200200FB41CB5074B06AA55
:1001F0007B4469460090059800F049FB0020694661
:1002000000F058FB1CBC5DF814FB0000C1060000A8
:100210002DE9F0410646002410687529314616A5DF
:1002200010D0AFF30080002802DA404213A507E0A7
:1002300031688A0701D512A502E0490704D511A546
:10024000012401E0AFF3008000210A2206F1240717
:1002500009E0B0FBF2FCB0FBF2F302FB1C00303013
:1002600078541846491C0028F3D123462A463046C4
:10027000BDE8F04100F09DB8000000002D00000036
:100280002B000000200000002DE9F0474FF0000A8D
:1002900089460446C0F820A02046E1688847002827
:1002A00076D0252806D0D4E901219047206A401C49
:1002B0002062F1E7E168204600258847C4F81CA0C9
:1002C00006460027C4F818A02A2E09D0304601F0AF
:1002D0003FFE38B304EB8708303EC8F8186019E0D9
:1002E00059F8041B204604EB87029161E1688847B6
:1002F000012F064618D1E069002820DA25F02005F4
:100300001DE0D8F8180000EB800006EB4000303804
:10031000C8F818002046E1688847064601F018FE34
:100320000028EED1012F0AD02E2E08D12046E168F8
:1003300088477F1C0646022F45F02005C4DBA069D4
:10034000002803DA404245F00105A061E80701D02A
:1003500025F01005B6B1A6F14100192802D82036C3
:1003600045F400654A463146204625604D46FFF774
:10037000F7FE58B1012806D0ED1D25F0070000F169
:10038000080989E704E005F1040985E730468AE7B2
:10039000206ABDE8F08770477047704710B500F0DD
:1003A00093FA006810BD10B5044600F08DFA0460A1
:1003B00010BD2DE9F0470D4699469246044600F1DE
:1003C00024080168880604D5E06921F01001216045
:1003D00000E00120A84201DD471B00E00027A169E1
:1003E0007A1902EB0900081AA0612078C00602D42D
:1003F0002046AFF30080002608E0D4E901211AF876
:1004000006009047206A401C761C20624E45F4DBB3
:100410002078C0060AD52046AFF3008006E0D4E974
:10042000012130209047206A401C2062381EA7F12D
:100430000107F4DC07E0D4E9012118F80500904732
:10044000206A401C2062281EA5F10105F3DC20462D
:10045000AFF300802078000602D50220BDE8F087C7
:100460000120FBE770472DE9FF4F0C461E464FF079
:10047000FF378BB0D2E90001DDF860800A908A4630
:10048000C1F30A5505B93D46002108464FF000006A
:10049000BAF1000F00F4400005DA00EB80004FF4E1
:1004A000400101EA50004FEA9059B9F1010F00DD17
:1004B000B9460A9850EA4A000ED044F61050A5F208
:1004C000FF3545432F14B8F1000F1ED07542291E89
:1004D0001EDDC9F100021CE0B8F1010F4FF0000071
:1004E00001D0302103E0F24305E02154401CB0422A
:1004F000FBDB30460022002121540B99C1F8088013
:10050000C1E900200FB0BDE8F08FBD1B6D1CDEE718
:100510004A4600DA694206A800F060FA06AB93E8A2
:10052000070003AB83E8070050460A9900F041FB3F
:100530008DE80700A0F500501F3800900398002DAB
:100540000ADD42F21F014A460844002303A9039032
:10055000684600F0AAFD09E0A0F500504A461F38A1
:10056000002303A90390684600F0B4FD8DE807005E
:100570000004000C03D04FF0FF30410800E01046AB
:10058000B8F1000F03D00022009215461EE0751E40
:1005900005D400F09DF9303262556D1EF9D5B34691
:1005A0000122084302D000227F1C04E0207830287A
:1005B00001D100227F1E002A099784D01DE0112D51
:1005C00007DA00F085F9303262556D1C50EA0102FD
:1005D000F5D1084302D00098C8B10EE00021681E92
:1005E00005E0235C625C63542254401E491C814236
:1005F000F7DBAB46A81B401E0990002004F80B0057
:100600000B98099AC0F80880C0E9002B7AE71126F8
:100610004FF0000857E72DE9F04F88460446D21DF9
:1006200022F0070191B0D1E90001CDE90A0101F002
:1006300005FC02460B98C00F01D02D2007E0206872
:10064000810701D52B2002E0202101EAC000032A06
:10065000099001D0072A05DB03464146204600F0F9
:100660007DF90BE12078800601D5E06900E00620E5
:10067000B8F1650F814606D0B8F1660F18D0B8F111
:10068000670F70D131E00020B9F1110F009001DB4C
:10069000112301E009F101030AAA01A90CA8FFF73F
:1006A000E2FEDDE90C70002609F10105834647E012
:1006B00001204B4600904FF000470AAA01A90CA860
:1006C000FFF7D1FEDDE90DB00C995D46002610B9AB
:1006D00009F101000D18B9EB050003D4C0F1FF3694
:1006E00009F10105A5EB09002BE0B9F1010F01DAD1
:1006F0004FF001090020B9F1110F0090484601DDCB
:10070000112300E003460AAA01A90CA8FFF7ABFEDB
:10071000DDE90C704D4600268346207800070AD498
:10072000AB4500DA5D4601A8012D04DD411911F841
:10073000011C302907D04F4502DA17F1040F04DA03
:10074000012082460FE06D1EEEE7002F02DCED1B5C
:100750003E4403E0781CA84200DD7D1CB81B00F17C
:10076000010A4FF000472078000703D4AA4501DBB7
:100770004FF0FF3A0021B7F1004F0DF143088DF81B
:10078000431024D002202B23002F01DA7F422D2397
:100790000A21021EA0F1010000DC5FB197FBF1FC11
:1007A00097FBF1F201FB1C7C17460CF1300C08F8AA
:1007B00001CDEEE7A8F1010003702188090501D5FC
:1007C000452100E06521A0F1010800F8011C09980D
:1007D0000FA9A1EB0807FF1D00B10120411901EB92
:1007E000EA70A1693844081A401EA0612078C0064A
:1007F00002D42046AFF30080099828B1D4E9012142
:100800009047206A401C20622078C00622D52046EE
:10081000AFF300801EE0002E04DBB34502DD01A82B
:10082000805D00E03020D4E901219047206A401C1F
:100830002062761CAAF101005FEA000A0AD100F0EA
:100840003FF8C0680168405CD4E901219047206A04
:10085000401C2062281EA5F10105DCDC07E0D4E97C
:10086000012118F8010B9047206A401C2062381EB5
:10087000A7F10107F3DC2046AFF30080032011B09D
:1008800041E6000001694A1C02610878704700B522
:100890008FB0CDE901310021059105497944CDE9B9
:1008A000031011466846FFF7EFFC0FB000BD0000D3
:1008B000E5FFFFFF0A6802F8010B0A6070470000BD
:1008C00000487047AC000020004870478C000020B2
:1008D00030B5B0F10A024FEA900E71F100034EEA12
:1008E000817EB0EB0E0061EB91014FEA101E4EEAE3
:1008F000017E10EB0E0041EB11114FEA102E4EEA73
:10090000016E10EB0E0041EB11214FEA104E4EEA42
:10091000014E10EB0E0041EB1141401841F1000176
:100920004FEAD00040EA41704FEAD10110EB800558
:100930004FEA810444EA907444EB01046D1944EBDE
:100940000404521BA3414FF0000348BF0A3200D5F4
:1009500030BD401C41F1000130BD00002DE9F041E7
:100960001F46044603260168072A01F4006004DBE1
:1009700008B116A505E016A503E008B115A500E02D
:1009800015A521F010002060A069C01EA0610FB164
:10099000401EA0612046AFF300804FB1D4E9012191
:1009A00038469047206A401C2062C01C206206E046
:1009B000206AFAE7D4E9012115F8010B9047761E69
:1009C000F8D22046AFF30080BDE8F0814E414E00E2
:1009D0006E616E00494E4600696E66002DE9F04773
:1009E000814616468AB0354878440DC88DE80D001A
:1009F00032487844801C03AC0DC884E80D0041F6F1
:100A00009B300844372190FBF1F290FBF1F5A5F102
:100A1000800501FB12041B3C02D56442012000E06A
:100A20000020DFF898A080460027FA44AAF1BE0A09
:100A30000EE0E0070AD03246684607EB4701012383
:100A40000AEB810100F046FB8DE8070064107F1C73
:100A5000002CEED1194F7F44AE3F19E0E80715D0C6
:100A600007EB04100DF1180A90E80E008AE80E005A
:100A7000C068F04201D1981908903246012306A9B6
:100A800003A800F027FB03AB83E807006D10641C8C
:100A9000002DE3D14FF0010332466946B8F1000F53
:100AA00003A802D000F001FB01E000F013FBC9E94C
:100AB0000001C9F808200AB0BDE8F087E837000057
:100AC000004870478C0000207546FFF7F9FFAE46DE
:100AD00005006946534620F00700854618B020B54A
:100AE000FFF770FBBDE820404FF000064FF0000715
:100AF0004FF000084FF0000B21F00701AC46ACE8C6
:100B0000C009ACE8C009ACE8C009ACE8C0098D4632
:100B1000704710B50446AFF300802046BDE8104092
:100B2000FFF73BBB4FF0013C50F8042B51F8043B5E
:100B30009A4221D1A2EB0C03934313EACC1317D1B1
:100B400050F8042B51F8043B9A4215D1A2EB0C0348
:100B5000934313EACC130BD150F8042B51F8043B08
:100B60009A4209D1A2EB0C03934313EACC13DBD0D6
:100B70004FF00000704700BFD01A01BAB1FA81F1FE
:100B800001F0180122FA01F0CB40C1F12001DBB2E3
:100B9000C0B2C01A2CFA01F3D11A914311EAC31161
:100BA000E6D1704701491820ABBEFEE726000200DF
:100BB00070475FEA400C08BF91F0000F4FEA8C23AA
:100BC0004FEAC12243EA51514FEA1C5018BF00F5C9
:100BD000F0404FEA300018BF41F000415FEA6C5C22
:100BE00000F02980BCF1FF3F08BF40F08040704713
:100BF000130C06BF12044FF0100C4FF0000C130E34
:100C000004BF12020CF1080C130F04BF12010CF107
:100C1000040C930F04BF92000CF1020CD30F04BF1D
:100C200052000CF1010C11464FF00002A0F11F0020
:100C3000A0EB0C00704711F0004F08BF704731F077
:100C400000413FF4D5AF0B0C06BF09044FF0100C68
:100C50004FF0000C0B0E04BF09020CF1080C0B0F37
:100C600004BF09010CF1040C8B0F04BF89000CF1C7
:100C7000020CCB0F04BF49000CF1010CCCF1200396
:100C8000A0EB0C0022FA03F302FA0CF241EA030192
:100C900000F10100704720F07F4C80EA030023F050
:100CA0007F47ACEB070303F57C5300F0004003F1F2
:100CB000FF032DE980494FEA154B09B44FEA14436D
:100CC00025EA0B4E24EA03480FF2042606EB13270D
:100CD00049083E785FEA320203FB0667C7F5000762
:100CE00007FB06F64FEA54374FEAD64606F10206EE
:100CF00007FB066CCCF1005C4FEA1C472CEA074C62
:100D000007FB06F40CFB06F504EB15464FEA9616B6
:100D100034BF00204FF000404FEAD13706FB07FCFC
:100D20004FEA1C4C0CFB0BF7D21B03FB0CF761EBDF
:100D300007010CFB0EF7B0EB074072EB17420CFB00
:100D400008F734BFA2EB0742B2EB074261EB174151
:100D50004FEA0C444FEA910706FB07FC4FEA1C4C94
:100D60000CFB0BF7B0EBC74072EB573203FB0CF7F1
:100D700034BFA2EBC742B2EBC74261EB57310CFB69
:100D80000EF7B0EBC70072EB57720CFB08F734BFDD
:100D9000A2EBC702B2EBC70261EB5771039F4FEAA8
:100DA000816141EA921104EBCC044FEAD1374FEA5A
:100DB000826206FB07FC42EA90124FEA80604FEA2B
:100DC0001C4C0CFB0BF7D21B03FB0CF761EB070170
:100DD0000CFB0EF7B0EB074072EB17420CFB08F769
:100DE00034BFA2EB0742B2EB074261EB17414FEA77
:100DF0008C554FEA910704EB9C2406FB07FC4FEA55
:100E00001C4C0CFB0BF7B0EBC74072EB573203FBEB
:100E10000CF734BFA2EBC742B2EBC74261EB5731CC
:100E20000CFB0EF7B0EBC70072EB57720CFB08F728
:100E300034BFA2EBC702B2EBC70261EB577115EBEF
:100E40004C254FEA816141EA92114FEA82624FEAF2
:100E5000D13742EA901206FB07FC44F100044FEA46
:100E600080604FEA1C4C0CFB0BF7D21B03FB0CF70A
:100E700061EB07010CFB0EF7B0EB074072EB17427A
:100E80000CFB08F734BFA2EB0742B2EB074261EB61
:100E9000174115EB1C154FEA813141EA92414FEAA7
:100EA000823242EA90424FEA80304FEA0C7644F1B7
:100EB000000448EA03434EEA0B484FF0000EB2EB41
:100EC000080C71EB030724BF624639464EEB0E0E49
:100ED0004FF0000B0018524149414BEB0B0BB2EBAA
:100EE000080C71EB03077BF1000B24BF6246394607
:100EF0004EEB0E0E4FF0000B0018524149414BEBE8
:100F00000B0BB2EB080C71EB03077BF1000B24BF5A
:100F1000624639464EEB0E0E51EA020718BF46F004
:100F2000010616EB0E7655F1000254F1000103D5CF
:100F3000BDE88901BDE80088BDE88901BDE8004839
:100F4000B619524141EB0101A3F1010370478080C2
:100F50007F7E7D7C7B7A7978777676757473727113
:100F600071706F6E6E6D6C6C6B6A6A6968686766CB
:100F700066656464636362616160605F5F5E5E5D5D
:100F80005D5C5C5B5B5A5A595958585757565655D1
:100F900055555454535352525251515050504F4F33
:100FA0004F4E4E4D4D4D4C4C4C4B4B4B4A4A4A4983
:100FB00049494848484747474746464645454544C6
:100FC0004444444343434342424242414141002B53
:100FD0009C4630D477002BD01CB54FEA370703B4BA
:100FE0004FF010004FF01001BAF1000F06D0BCF125
:100FF000000FDCBF40F0080040F008014FF0000097
:101000000FBCBDE810400BF1010BBBF1010F08BF95
:101010005FEA170722BF12F1010211F101014FF03F
:10102000004143F1000300F0004043EA0000704734
:10103000F9D35708D0E746EA064613F1400F4FEAC6
:1010400016461FDD13F1200FDFBF16430A460021AD
:1010500020335B42BED0C3F1200746EA064602FABF
:1010600007F74FEA164646EA0706C3F1200722FAB9
:1010700003F201FA07F721FA03F14FF0000342EA05
:101080000702A7E746EA020646EA06464FEA164680
:1010900046EA0106BCBF46EA0646360C4FF000039E
:1010A0004FF000024FF0000194E72DE9804C9A4682
:1010B000934670B491E8380007C831EA400C48BF45
:1010C00034EA430C03D5FFF7E6FDFFF780FFF0BCE1
:1010D000BDE8008C2DE9804C9A46934670B491E8A7
:1010E000380007C810F0804F08BF13F0804F03D1BD
:1010F00000F005F8FFF76BFFF0BCBDE8008C20F0B6
:101100007F4780EA030023F07F4C07EB0C03A3F535
:101110007C5300F00040A3F1FE0392F0000F00F0BA
:10112000B38095F0000F00F077802DE901494FEA78
:1011300011404FEA144621EA004800FB06FC24EA6D
:10114000064708FB06F607FB08F800FB07F718EB55
:1011500006484CEB164C4FEA124B18EB07484FEA87
:1011600015464CEB174022EA0B4E0BFB06FC25EA1A
:1011700006470EFB06F607FB0EFE0BFB07F71EEB02
:10118000064E4CEB164C4FF000061EEB074E4CEB98
:10119000174B18EB0B0840F1000018EB0E0B58EB47
:1011A000000840F100008F1A4FF000013CBFC94316
:1011B000661B14BFB5EB040C00213CBFC943F61BF2
:1011C0004FEA17444EEA8E0E27EA04454FEA1C47C1
:1011D00004FB07622CEA074C05FB07F70CFB05F63E
:1011E00004FB0CFC16EB074642EB174216EB0C46D1
:1011F00042EB1C421BEB060658EB0202414146EA59
:101200009E0601D5BDE80189B619524141EB0101A5
:10121000A3F10103BDE801894FEA14454FEA1147E4
:1012200024EA054621EA074C05FB07F406FB07F70D
:101230000CFB06F105FB0CFC11EB074144EB1744DA
:101240004FEA124711EB0C4144EB1C4422EA074CD5
:1012500005FB07F206FB07F70CFB06F605FB0CFC8B
:1012600016EB074642EB174216EB0C4642EB1C45C9
:101270006A1854F1000148BF7047B619524141EB5A
:101280000101A3F10103704795F0000F37D04FEA39
:1012900011424FEA144721EA024624EA074C02FBB6
:1012A00007F106FB07F70CFB06F402FB0CFC14EB42
:1012B000074441EB17414FEA154714EB0C4441EB4F
:1012C0001C4125EA074C02FB07F506FB07F70CFB60
:1012D00006F602FB0CFC16EB074645EB174516EB32
:1012E0000C4645EB1C42121951F1000148BF7047F2
:1012F000B619524141EB0101A3F1010370474FEAD6
:1013000014454FEA114724EA054621EA074C05FB3C
:1013100007F106FB07F70CFB06F24FF0000605FB92
:101320000CFC12EB074241EB174112EB0C4251EB64
:101330001C4148BF7047921841EB0101A3F1010322
:10134000704700002DE9F0413B21D02000F06AF801
:10135000304908703C21D02000F064F82D494870D5
:1013600008464078097840EA01202B490880084661
:10137000008802F06AF806460022284B01F0F6FECB
:10138000044601F005FE264908603D21D02000F00A
:1013900049F8204988703E21D02000F043F81D49CB
:1013A000C8700846C078897840EA01201A49088048
:1013B0000846008802F049F806460022174B01F063
:1013C000D5FE044601F0E4FD154948603F21D020D8
:1013D00000F028F80F4908714021D02000F022F8D1
:1013E0000C49487108464079097940EA01200A49C8
:1013F00008800846008802F028F806460022074BBD
:1014000001F0B4FE044601F0C3FD054988600846BA
:10141000BDE8F08140000020480000200000D040DE
:101420007C00002070B504460D4600F033FE2046D7
:1014300000F057FE18B900F043FE002070BD2846AA
:1014400000F04FFE18B900F03BFE0020F6E700F078
:1014500021FE611CC8B200F044FE18B900F030FE55
:101460000020EBE7002000F0CDFD064600F028FE4E
:101470003046E3E770B506460C46154600F00AFE16
:10148000304600F02EFE18B900F01AFE002070BDA4
:10149000204600F026FE18B900F012FE0020F6E704
:1014A000284600F01EFE18B900F00AFE0020EEE704
:1014B00000F006FE052000F01AF80120E7E710B55D
:1014C0000121880700F056FC00214FF0804000F019
:1014D00060FC00BF4FF0804000F058FCB0F57A7F10
:1014E000F8DB00214FF0804000F044FC10BD10B547
:1014F000044602E0FFF7E3FF641E002CFAD110BDA2
:1015000010B5012000F040F868B107480078401C91
:101510000549087008460078022801DD012008709E
:10152000012000F02BF810BD5800002010B502205B
:1015300000F02AF8E8B100BF00BF00BF00BF00BF45
:10154000BFF34F8F00BF00BF00BF0A48006800F420
:10155000E06009490843001D0649086000BF00BF5C
:1015600000BFBFF34F8F00BF00BF00BF00BF00BF71
:10157000FDE710BD0CED00E00000FA050149086030
:101580007047000014040140014600200022074B70
:101590001B6803EA0102054B14331B680B4013B1AF
:1015A0000AB1012000E00020704700000004014063
:1015B000002123498279002A3AD00A46126803683A
:1015C0009A430B461A600A1D126803689A430B1D62
:1015D0001A60027911440A6803681A430A60184ABB
:1015E0000832126803689A43154B08331A601A1DB3
:1015F000126803689A43124B0C331A604279102A1E
:101600000ED11A1F126803681A430D4B08331A6073
:101610001A1D126803681A43094B0C331A600DE057
:101620000749427911440A6803681A430A6005E0D1
:10163000027911440A6803689A430A6070470000FF
:101640000004014030B500228B071C0F0F2303FA62
:1016500004F20B4B8C1053F824309343084C8D103C
:1016600044F8253023468C1053F824308C07240F7F
:1016700000FA04F42343024C8D1044F8253030BDA9
:10168000080001402DE9F041024600250026002017
:1016900000230024002791F803C00CF00F0591F8F7
:1016A00003C00CF0100CBCF1000F03D091F802C085
:1016B0004CEA050591F800C0BCF1000F31D0146868
:1016C00000202BE04FF0010C0CFA00F3B1F800C041
:1016D0000CEA03069E4220D183004FF00F0C0CFA57
:1016E00003F7BC4305FA03FC4CEA040491F803C079
:1016F000BCF1280F06D14FF0010C0CFA00FCC2F827
:1017000014C00AE091F803C0BCF1480F05D14FF0B6
:10171000010C0CFA00FCC2F810C0401C0828D1D300
:101720001460B1F800C0BCF1FF0F34DD5468002034
:101730002EE000F1080C4FF0010808FA0CF3B1F8A4
:1017400000C00CEA03069E4221D183004FF00F0C2B
:101750000CFA03F7BC4305FA03FC4CEA040491F8C5
:1017600003C0BCF1280F05D100F1080C08FA0CF8F1
:10177000C2F8148091F803C0BCF1480F07D100F102
:10178000080C4FF0010808FA0CF8C2F81080401C51
:101790000828CED35460BDE8F0810246002093684B
:1017A0000B400BB1012000E0002070474161704701
:1017B0000161704710B504461CB101200449C8708E
:1017C00002E000200249C87000F00AF810BD0000D5
:1017D0002800002010B5012000F080F810BD0000A6
:1017E00010B500240EE00B4800784010094908703D
:1017F0000948005D20B10846007840F0800008707C
:10180000601CC4B2082CEEDB012202494E2000F01D
:1018100000F910BD300000202800002010B5322053
:10182000FFF765FE00F066F9002404E000201B4984
:101830000855601CC4B2082CF8DBFFF7D1FF00206C
:1018400016490870FFF7CCFF002014494870FFF7D5
:10185000C7FF032000F05AF80520FFF748FE0320D9
:1018600000F054F80120FFF742FE032000F04EF88C
:101870000120FFF73CFE022000F048F80120FFF7AE
:1018800036FE282000F02AF80C2000F027F80E2061
:1018900000F024F8012000F021F810BD28000020FD
:1018A00010B5C02000F01AF810BD10B5044607E0CE
:1018B000207820B114F8010B00F004F900E000E0FA
:1018C000F6E700BF10BD000010B50423022201217D
:1018D000014800F0CDFB10BD0008014010B50446E2
:1018E00000F0BAF8002008490870FFF779FF0020DF
:1018F00005494870FFF774FF201100F007F82046F3
:1019000000F004F810BD00002800002010B50446C7
:1019100004F0080018B101201749C87102E0002046
:101920001549C87104F0040018B1012012498871EA
:1019300002E000201049887104F0020018B1012073
:101940000D49487102E000200B49487104F0010084
:1019500018B101200849087102E000200649087109
:10196000012005498870FFF73BFF0020024988707D
:10197000FFF736FF10BD00002800002010B500F072
:101980001BFB00221921D020FFF774FD00221A2131
:10199000D020FFF76FFD08221B21D020FFF76AFD42
:1019A00002221C21D020FFF765FD01226B21D020EF
:1019B000FFF760FD10BD000010B508231A0251109A
:1019C000014800F055FB10BD000C01402DE9F0412D
:1019D00007460D46164600F05DFB384600F081FBD9
:1019E00020B900F06DFB0020BDE8F081002405E087
:1019F000012000F007FB2855601CC4B2701EA042F5
:101A0000F6DC002000F0FEFA285500F059FB01201A
:101A1000EAE72DE9F04107460D46164600F03AFB8D
:101A2000384600F05EFB20B900F04AFB0020BDE81C
:101A3000F081002409E0285D00F053FB18B900F0A4
:101A40003FFB0020F3E7601CC4B2B442F3DB00F0BC
:101A500037FB0120EBE7000008B5012018490871A9
:101A600048718871C871FFF7BBFE002014490870E7
:101A7000FFF7B6FE012012494870FFF7B1FE00BF24
:101A800001200F498870FFF7ABFE012269464F2005
:101A9000FFF79CFF00200A498870FFF7A1FE012094
:101AA00007498870FFF79CFE002005498870FFF702
:101AB00097FE9DF8000000F008000028E0D108BD66
:101AC0002800002010B50446FFF7C6FF0120084992
:101AD0000870FFF785FE002005494870FFF780FE7B
:101AE0002011FFF713FF2046FFF710FF10BD000085
:101AF0002800002010B500F05FFA10BD70B500217D
:101B000000230F22C47804B3154C246804F4E06465
:101B1000C4F5E064210AC1F10403CA40447804FA20
:101B200003F184781440214309010E4C0678A15535
:101B3000047804F01F050124AC4005786D11AD0058
:101B400005F1E025C5F8004109E0047804F01F051F
:101B50000124AC40044D0678761145F8264070BD4E
:101B60000CED00E000E400E080E100E029B1064A6D
:101B7000D2690243044BDA6104E0034AD26982432A
:101B8000014BDA61704700000010024029B1064A9B
:101B900092690243044B9A6104E0034A92698243CA
:101BA000014B9A61704700000010024010B50348D5
:101BB000018803480068FFF7F9FD10BD3A000020D6
:101BC0003400002010B50348018803480068FFF77F
:101BD000EFFD10BD3A0000203400002010B503488E
:101BE000018803480068FFF7E1FD10BD38000020C0
:101BF0003400002010B50348018803480068FFF74F
:101C0000D7FD10BD380000203400002010B5054875
:101C1000018805480068FFF7C0FD08B1012010BD2C
:101C20000020FCE7380000203400002010B500F050
:101C300001F810BD0CB500200190009033480068F9
:101C400040F480303149086000BF3048006800F43B
:101C5000003000900198401C0190009818B901983C
:101C6000B0F5A06FF1D12948006800F4003010B140
:101C70000120009001E0002000900098012843D14D
:101C80002348006840F010002149086008460068B9
:101C900020F0070008600846006840F00200086075
:101CA0001A48406819494860084640684860084634
:101CB000406840F4806048600846406820F47C102A
:101CC00048600846406840F4E810486008460068EC
:101CD00040F08070086000BF0C48006800F00070A1
:101CE0000028F9D00948406820F0030007494860FF
:101CF0000846406840F00200486000BF0348406862
:101D000000F00C000828F9D10CBD000000100240C2
:101D10000020024010B51348006840F0010011494E
:101D2000086008464068104908400E494860084667
:101D300000680E4908400B4908600846006820F416
:101D4000802008600846406820F4FE0048604FF498
:101D50001F008860FFF76AFF4FF0006004490860C9
:101D600010BD0000001002400000FFF8FFFFF6FE6B
:101D700008ED00E021B1028842F00102028004E097
:101D800002884FF6FE731A40028070470146888C25
:101D90007047818470470000002202881D4B9842E2
:101DA0000ED01D4B98420BD0B0F1804F08D01B4B8A
:101DB000984205D01A4B984202D01A4B984204D14F
:101DC0004FF68F731A404B881A43174B984207D02F
:101DD000164B984204D04FF6FF431A40CB881A4363
:101DE00002808B8883850B8803850A4B98420BD031
:101DF000094B984208D00E4B984205D00D4B9842A3
:101E000002D00D4B984201D10B7A038601238382C5
:101E100070470000002C01400034014000040040E5
:101E200000080040000C004000100040001400407A
:101E3000004001400044014000480140490050EA90
:101E4000C12018BF04204A0D18BF40F0010040F225
:101E5000FF72B2EB515F08BF40F00200012808BFDB
:101E6000052070472DE9F0414F1E00EBC7010446E5
:101E7000D1E9000115461E4637F006020DD02A466C
:101E8000334601F031FB7F1E04EBC703D3E9002387
:101E900001F0B0F837F00602F1D1022F25D0042F5F
:101EA00013D0062F18BFBDE8F0812A46334601F053
:101EB0001BFBD4E90A2301F09DF82A46334601F0C2
:101EC00013FBD4E9082301F095F82A46334601F0C4
:101ED0000BFBD4E9062301F08DF82A46334601F0C6
:101EE00003FBD4E9042301F085F82A46334601F0C8
:101EF000FBFAD4E9022301F07DF82A46334601F0CB
:101F0000F3FAD4E90023BDE8F04101F073B8000012
:101F1000002213461046014901F028B90000F03FA5
:101F200001F068B8002213461046114601F01EB9B0
:101F300040F2013200204FF0E04102F07EB8000094
:101F4000024A0020110702F078B8000001FDFFFFEF
:101F500030380A2801D201207047002070470EB5A2
:101F600001210846FFF702FE0020ADF802004FF6FF
:101F7000FF70ADF804004720ADF8000069464FF04F
:101F80008040FFF709FF0EBD10B504460121880708
:101F9000FFF7F0FE00214FF08040FFF7FAFE00BF90
:101FA0004FF08040FFF7F2FEA042F9D300214FF03E
:101FB0008040FFF7DFFE10BD08B501210D48006825
:101FC000FFF7E4FD14208DF803000B4800880B494F
:101FD00009880843ADF8000003208DF80200694627
:101FE00007480068FFF74EFBFFF704FEFFF7EAFD26
:101FF00008BD00003C000020380000203A0000200E
:102000003400002070B50546FFF7F4FD0320FFF70C
:10201000BBFF002615E06006040EFFF7D3FD03208A
:10202000FFF7B2FFFFF7F2FD08B144F00104022010
:10203000FFF7AAFFFFF7BAFD0520FFF7A5FF701C09
:10204000C6B2082EE7DB15B1FFF7C8FD01E0FFF7C8
:10205000D1FD0320FFF798FFFFF7B4FD0520FFF740
:1020600093FFFFF7A3FD0520FFF78EFF204670BD0D
:1020700010B5044C2060044C2180044C2280044C98
:10208000236010BD34000020380000203A000020FA
:102090003C00002010B5FFF795FD0320FFF774FF0B
:1020A000FFF7A8FD0320FFF76FFFFFF797FD032061
:1020B000FFF76AFFFFF77AFD0320FFF765FF10BD0A
:1020C00010B5FFF78BFD0320FFF75EFFFFF77AFDEA
:1020D0000320FFF759FFFFF78DFD0320FFF754FFA3
:1020E00010BD70B50446002618E004F0800010B161
:1020F000FFF780FD01E0FFF771FD0320FFF744FFCC
:10210000FFF760FD0520FFF73FFFFFF74FFD0220BF
:10211000FFF73AFF6006040E701CC6B2082EE4DB1F
:10212000FFF768FD0320FFF72FFFFFF74BFD0320AC
:10213000FFF72AFFFFF76AFD08B1002500E001253F
:102140000220FFF721FFFFF731FD0520FFF71CFFFD
:10215000284670BD2DE9FF4707460C4615461E462A
:10216000DDE90D9ADDF8308001213846FFF70EFDDC
:10217000A0B2ADF80C0028208DF80F0003208DF8D8
:102180000E0003A91448FFF77DFA01210846FFF766
:10219000FDFCF1B2E8B2FFF755FACDF8048000205B
:1021A0008DF8080008208DF8090001208DF80A003C
:1021B00001A8FFF7FDF909F0FF008DF800008DF888
:1021C00001A000208DF8020001208DF80300684670
:1021D000FFF794FCBDE8FF87000C01408AB00121A5
:1021E0001020FFF7D3FC10208DF823004FF4C040DF
:1021F000ADF8200003208DF8220008A9B748FFF7AA
:1022000041FAFFF7ACFE01200621CDE900010023D1
:102210000246014602900820FFF79CFF002007219C
:1022200002220123CDE9002102901A460221082052
:10223000FFF790FFFFF7C0FBFFF7A0FBFFF744FBA2
:10224000FFF7ECFA0120FFF7B5FAFFF7C3FAA4484D
:10225000A4A10268A748FDF7C7FFA648FFF725FB22
:102260003AE100F053FEA4490870084600780128BE
:102270007ED181039948FFF799FAFFF79DFBFFF79D
:1022800061F89E4908600968886801F03DFC0646CF
:1022900000224FF0804300F04DF9CDE90601974947
:1022A0000968086801F030FC064600224FF08043C0
:1022B00000F040F98246DDE9062300F09BFE8046EF
:1022C00000F02AFE044600F063FE8D4908608D4848
:1022D000006898B90846006801F016FC04468A4A6E
:1022E0008A4B01F0C5F809D2844800680068884923
:1022F00008608248006880688649086081480068F4
:1023000098B97F48006801F0FFFB04467E4A7F4B86
:1023100001F0E8F909D84FF080417948006801F0F0
:1023200063FD02D8012077490860764800680128DB
:1023300054D17348006801F0E7FB0446724A734BBE
:1023400001F0D0F94AD84FF080416D48006801F0A3
:102350004BFD43D870480068401C6F4908606F48C7
:10236000006801F0D1FB804689466449096800E0B5
:10237000A8E088686749096801F0B6FD019001F09E
:10238000C3FB064600224FF0804300F0D3F804461A
:102390000D465A49096808685D49096801F0A4FDBD
:1023A000019001F0B1FB064600224FF0804300F09F
:1023B000C1F822462B46CDE9020100F01BFECDE913
:1023C000040100F0A9FD42464B46CDE9060100F0AC
:1023D00011FE824600F0DCFD504908604948006863
:1023E00001283CD14648006801F08EFB0446464A6D
:1023F000464B01F03DF832D24748006801F0E0FC5E
:10240000044621464548006801F018FC434908602D
:102410000846006801F078FB0446414A414B01F050
:1024200061F915D83C4800682D2811D32C48006864
:10243000401C2B490860FFF747FAFFF7CBF9284803
:1024400028A102682B48FDF7CFFE2A48FFF72DFA96
:10245000002031490860314908602A490860324843
:102460000068401C304908600120FFF740F82E4802
:102470000068B0F5FA7F04D14FF400511748FFF718
:1024800097F929480068B0F57A7F25D14FF40051BB
:102490001248FFF78BF9FFF717FA1849096888689F
:1024A00001F032FB044622460B4620A11148FDF7FD
:1024B0009BFEFFF7F5F90F48FFF7F7F900201A49DF
:1024C000086009E04FF480410448FFF771F94FF4C8
:1024D00000510248FFF76AF9C3E60000001001400E
:1024E0000C00002042756F63206368616E203A2003
:1024F000256400005C00002008000020040000208B
:102500001400002020000020AE47E17A14AEEF3F17
:10251000180000201C0000202400002010000020D3
:102520009A9999999999C93F000000205A3D252E02
:10253000346620002DE9F04D1D460C4698B0174634
:1025400021F0004123F00043002814BF4FF0010C9C
:102550004FF0000C0CEB440CFE4A0CEB02064FEA69
:10256000620C66452BD33E0018BF012606EB4506DC
:102570001644F94A964222D3F84A53EA070C02D08D
:10258000944205D148B918B000201146BDE8F08D3D
:10259000002808BF4FF0000C01D04FF0010C0CEBED
:1025A000440212F5001F0AD8002F14BF4FF0010C8F
:1025B0004FF0000C0CEB450212F5001F07D918B0C4
:1025C0003A462B462146BDE8F04DFFF7A9BC002254
:1025D000DFF88CA3002CB8BF534526DADFF884C39C
:1025E0006345A8BF022220DADFF870C39C451CDCDB
:1025F000DFF874C30CEB235CBCF1140F08DDCCF1E5
:10260000340627FA06FC0CFA06F6BE420DD108E0A5
:102610005FB9CCF1140623FA06FC0CFA06F69E42CA
:1026200003D10CF00102C2F1020251EA000C19D1EF
:10263000002D17DA002C18BF022A01D0012A07D07A
:102640000220FDF7B0FE18B0BDE8F04DFFF760BC0A
:102650000220FDF7A8FEFFF75BFC18B081F00041F7
:10266000BDE8F08DB7F1000C6CD1534525D104F1D4
:10267000804212F5801201BF00280020B74918B02F
:1026800008BFBDE8F08DB548884207DC002DA1BF2A
:102690006046294618B0BDE8F08D07E0281E05DA2F
:1026A00080F0004118B06046BDE8F08DAF49794434
:1026B000D1E9000118B0BDE8F08DDFF8A0C2634594
:1026C00025D1002D1FDA19B1514512D1D8B909E031
:1026D000002840F0EC82A24A214618B062F31E01A5
:1026E000BDE8F08D0020214618B060F31E01BDE862
:1026F000F08D08DA18B02346BDE8F04D0246002000
:10270000614600F033BD18B02146BDE8F08D51455B
:1027100018DAB5F1804F0DD0A5F1005CBCF1FF5C7B
:1027200010D1B4F1000C0DDB18B06146BDE8F04DDE
:1027300000F0F2BB234618B00246BDE8F04D194642
:1027400000F0D2BE060024F0004C3BD1D9B1514577
:1027500033D1002C06DD002DA1BF0020514618B05A
:10276000BDE8F08D002C01DD002D1BDB002C13DA01
:10277000002D11DB012A4FF0000014BF78497C497D
:1027800018B0BDE8F08D022A18BF002C0AD0012A2B
:1027900008D1002C06DA0AE0002CB8BF002D11DAAF
:1027A000012A04D0002018B00146BDE8F08D18B011
:1027B00000204FF00041BDE8F08DA1F14050B0F194
:1027C0007F601AD0012000EBE47050EA020421D0AF
:1027D000624C521E4FF0000B104304BF4FF0000B31
:1027E000644C654883427CDD644A654893421FDD42
:1027F000884217DB002D25DB37E0002C00DA4AB1D8
:10280000022A0CBF01204FF0FF3018B0BDE8F04D98
:1028100000F004BE0120FDF7C6FD18B0BDE8F04D84
:10282000FFF780BB4D4A8A4202DC002D0ADC1CE027
:10283000814202DA002D18DA04E0484B994220DD8B
:10284000002D12DD0220FDF7AEFDFFF771FB0546FE
:102850000E46002253465846214600F045FE18B069
:1028600066F31E012846BDE8F08D0220FDF79BFDB2
:10287000FFF766FB0A46214618B062F31E01BDE869
:10288000F08D00223046614601F054F880460E4635
:102890006FF0010201F0D1FB4FF05532394B00F0DF
:1028A00057FF4246334600F01FFE0022364B00F031
:1028B0004FFF82464246334604911046194600F0C7
:1028C00013FE5246049B00F00FFE8A4600904FF024
:1028D000C0422E4B4046314600F006FE2C4A2B4BA0
:1028E00000E027E0CDE906015146009800F0FCFD2C
:1028F00082460191274A284B4046314600F0F4FDBC
:102900005246019B01F016F882460B46024605919D
:10291000DDE9060100F06EFBDDE9062300268846AE
:10292000304601F007F85246059B00F011FF0246C1
:1029300000F07EB90020B1F5801F07DA352230465D
:10294000614601F07AFB06466FF0340000EB21503F
:1029500024E00000FFFF1F00FFFF0F000000F03F1A
:102960000000F07F0000404301FCFFFF9E1A0000C2
:102970000000F0FF0000F0BF0000E0410000F04365
:10298000FFFFEF3F5555D53F0000E03F4715F73FAC
:10299000FE822B6544DF5DF80BAE543EA0F2FF30A3
:1029A0000190C1F3130040F07F6141F0405102916A
:1029B000FE498842D8BF002004DDFD498142C8BFDE
:1029C000012001DD0D9008E000200D900198401CD1
:1029D00001900298A0F5801002900299F548784481
:1029E0000B910D9900EBC100D0E900230F93304605
:1029F0000A920B9900F09EFFCDE90601DDE90A215C
:102A000030460F9B00F0F6FA02460B460020EA49DA
:102A100000F0ACFB059102460B460090DDE9060193
:102A200000F062FD1490E5488A464FF000087844B3
:102A30000299006812904FF0005040EA61010D9831
:102A40000F9B01EB804000F5002109910A9A129832
:102A500000F070FF32460B9B00F07AFE4246534670
:102A600000F042FD0646029140465146099B129AEB
:102A700000F03AFDDDE9062300F06AFE3246029BD3
:102A800000F058FF059B009A00F02EFD0091149A6B
:102A9000049053461046194600F026FD06460246AD
:102AA000C7480B46029106217844FFF7DBF9CDE9D0
:102AB0000510029B32461046194600F015FDDDE96F
:102AC000053200F011FD0591064653464046194671
:102AD000149A00F08FFA009B049A00F005FD32462C
:102AE000059B00F087FACDE9051042465346104693
:102AF000194600F0F9FC0022B24B02910A9000F056
:102B000079FADDE9053200F075FA0E464246AD4B22
:102B1000404600F00FFF029B0A9A00F00BFFDDE930
:102B2000053200F015FE424602910A9033461046E7
:102B3000514600F0D9FCCDE906015346149A02999A
:102B40000A9800F0D1FC8A4602903346424600992A
:102B5000049800F0C9FC5346029A00F04BFA8246F2
:102B60000B4602460591DDE9060100F043FADDE976
:102B7000062300208846064600F0DCFE5246059BF0
:102B800000F0E6FD824609914FF060428E4B3046E0
:102B9000414600F0A9FC049006918C4A8A4B5046AD
:102BA000099900F0A1FC82460291894A894B30467E
:102BB000414600F099FC5246029B00F01BFA864BFE
:102BC0007B440D9A03EBC203D3E9002300F012FA11
:102BD0000E900791019800F021FC0591DDE90613A4
:102BE00082460E9A049800F005FA7C4A7A440D9BBE
:102BF00002EBC303D3E900230093029200F0FAF939
:102C00005246059B00F0F6F90026884652463046AB
:102C1000059B00F08FFE009B029A00F08BFE069B46
:102C2000049A00F087FE079B0E9A00F091FD024681
:102C300000200B4602903846294600F055FC82469B
:102C400001912B4638461946029A00F073FE32462F
:102C5000434600F049FC5246019B00F0CBF9074681
:102C60008A46324643462946029800F03DFC054616
:102C70000E463A46534600F0BDF9594A88469142FD
:102C800021DBA8EB020353EA000210D12A463346A7
:102C900000F050FECDE90401524A534B38465146EC
:102CA00000F0A8F9DDE9042300F01CFD21D2022088
:102CB000FDF779FBFFF73CF90A46214618B062F3AD
:102CC0001E01BDE8F08D494B28F000429A4210D316
:102CD000474A08EB020353EA00027FF4C6AD2A46D6
:102CE000334600F027FE3A46534600F0FBFC7FF6E1
:102CF000BCAD0022019228F000403E493E4A01EB63
:102D00002051824223DA481C4FF4801121FA00F04E
:102D100040443A4AC0F30A517A44394BA1F2FF3198
:102D2000CB4020EA0303C0F3130040F48010C1F14C
:102D30001401C84012680190B8F1000FBCBF4042B6
:102D400001902846314600F0F5FD05460E462A461C
:102D500033463846514600F04DF94FF000084246E0
:102D6000284B4046059100F0BFFBCDE90601264AFD
:102D7000264B4046059900F0B7FB009102902A4689
:102D800033464046059900F0D5FD3A46534600F0DB
:102D9000DFFC1F4A1F4B00F0A7FB009B029A00F0CC
:102DA00029F90746884602460B4635E08E9803000F
:102DB0007AB60B00E61600000000F03F1E17000078
:102DC0004C1600000000084009C7EE3FFD033ADC46
:102DD000F5015B14E02F3EBE24150000E81400004E
:102DE00000009040FE822B654715973C00CC904038
:102DF00000346F3F01FCFFFF0000E03F341400008F
:102E0000FFFF0F00432EE63F396CA80C615C20BE2B
:102E1000EF39FAFE422EE63FDDE9060100F0EAF85E
:102E2000DDE9062305460E4600F084FD3A4643469A
:102E300000F08EFC0F462A46334600901046194695
:102E400000F052FB824602462E4888460B4605217A
:102E50007844FFF707F85246434600F045FB2A4600
:102E6000334600F075FC80468A463B46284631468C
:102E7000009A00F039FB3B46009A00F0BBF806913F
:102E8000009000224FF080434046514600F052FD32
:102E90000F460C90424653462846314600F024FB2C
:102EA0003B460C9A00F062F9069B009A00F042FD46
:102EB0002A46334600F03EFD0022134B00F048FC4A
:102EC000054601980E4601EB00510815002810DC5C
:102ED00028463146019A01F0B0F8FEF7AFFF04280A
:102EE00008BFFFF72DF828463146019A01F0A5F8F2
:102EF00005460B4618B02A4658462146BDE8F04D17
:102F000000F0F2BAD41200000000F03F014800784F
:102F100070470000580000202DE9F04106460F469A
:102F200000F022FC041E0D4618BF0120284320F0AB
:102F30000040C0F17F6000F1E040C00F0ED0301CB7
:102F400018BF0120384320F00040C0F17F6000F13D
:102F5000E040C00F04BF0120FDF725FA20462946B6
:102F6000BDE8F08110B500290AD00878002807D004
:102F700005487844FDF7D6FD002801D0002010BD9B
:102F80000248784410BD00009A120000921200001E
:102F900021F00042A2F16052B2F5801F01F000431F
:102FA00028BFD2F17F6C0BD95FEA001C43EAC20252
:102FB00042EB507018BF704728BF20F001007047E7
:102FC000B2F5801FBCBF184670474FEA410C1CF594
:102FD000001F02D2084600F081BF70B500F02EFB42
:102FE00000000089FFF7F6BF4FF00040A0F5800019
:102FF0007047000010B591EA030F48BF83F000430B
:1030000000F1A084841A71EB030C05D2121943EB72
:103010000C03001B61EB0C01DFF824E14FEA1154B3
:10302000A4EB135C1EEA430F18BF9EEA445F73D003
:1030300023EA0E03DCF1200E21EA045143F480134D
:1030400032D322FA0CFE10EB0E0023FA0CFE41EBF9
:103050000E01CCF1200E03FA0EFE10EB0E0051F122
:103060000001B1F5801FCCF1200E32D201EB0451EA
:1030700012FA0EF2BDE8104058BF7047401C38BF2E
:103080005FEA420218BF7047002814BF20F0010019
:1030900041F100014FEA410313F5001F38BF7047AB
:1030A000A1F1C04100F018BB012A43EB0302ACF1CF
:1030B000200CDCF11F0E32BF4FF0000E23FA0CF390
:1030C00010EB030041EB0451B4EB115FD0D0A1EB46
:1030D000045101F5801149085FEA300001EB045109
:1030E0000ED350F1000038BF12FA0EFE08D1BDE831
:1030F0001040C9E7401C38BF5FEA4202CAD1C3E7AB
:10310000BDE810404FEA410313F5001F38BF704778
:10311000A1F1C04100F0E0BA9EEA445F08D011EA94
:103120005E0FBDE8104004BF01F000410020704771
:10313000BDE8104070B500F081FA00BF64FBBE3EF0
:103140000000E0FF02494FF0000000F044BF00BF64
:103150000000F87F491058BFC1F140415B1058BFD3
:10316000C3F140438B42EFF3008070472DE9C0412B
:1031700030B4DFF8A0C23CEA111418BF3CEA1314C3
:1031800000F0EC8081EA03051CEA111444EAD574CE
:1031900018BF1CEA131500F0C780A4EB05044FF01C
:1031A000004545EAC12145EAC32341EA505143EABB
:1031B000525304F17F74994204F500344FEAC02061
:1031C0004FEAC22208BF904200F09C804FEA13658C
:1031D0000FF24016765D4FEA134506FB05F7C7F17F
:1031E000807706FB07F74FEAD737A7FB03687642DD
:1031F000C8F58038A7FB06CE38BFA8F1010807FB49
:1032000008E64FF0000EA6FB028CE6FB03CEDCF1D5
:10321000000CCEF1004E38BFAEF1010EA6FB0C58EB
:103220004FF000074FF00005E6FB0E87A1FB08C634
:10323000A0FB07CE16EB0E0645F10005E1FB076586
:1032400015F1E04E7EBFA4F580345FEA46066D417D
:1032500016F1800745F100054FEA17274FEA066689
:1032600047EA0567A6F1DE46B6F1805F4FEA15250D
:103270001FD9384624F0010C05EBC471BCF1FE6F78
:1032800001EB0C1102D8F0BCBDE8008124425CBF08
:1032900001F5801E9EEAC47F02D4F0BCBDE8008127
:1032A000244238D4F0BCA1F1C041BDE8004100F097
:1032B00013BA4FEAD22242EA43524FEAD323A7FB82
:1032C00002864FEAD02040EA415007FB03661EEA1F
:1032D0000E0F4FEAD12105FB026658BFA6EB005640
:1032E000B6EB00564FEA520E4EEAC37E18EB0E0EB6
:1032F00056EB530EBDD518EB02085E417F1C55F10D
:103300000005B6E74FF480154FF000074FF00006B8
:103310004FF00008ADE7F0BC4FF0000001F1C041F4
:1033200001F00041BDE8008111EA0C1F0CEA131501
:1033300000D00CE013EA0C1F00F025804FF00000D5
:10334000F0BC81EA030101F00041BDE80081F0BC5E
:10335000BDE8004181EA030100F0BEB9F0BCBDE860
:10336000004170B500F06AF9097EFC3E00F007B834
:1033700081EA03014FF0000001F00041704781EA4B
:10338000030100F0A9B9F0BCBDE800414FF0000016
:1033900021497047FFFDFBF9F7F5F4F2F0EEEDEB94
:1033A000E9E8E6E4E3E1E0DEDDDBDAD8D7D5D4D343
:1033B000D1D0CFCDCCCBCAC8C7C6C5C4C2C1C0BF8F
:1033C000BEBDBCBBBAB9B8B7B6B5B4B3B2B1B0AF95
:1033D000AEADACABAAA9A8A8A7A6A5A4A3A3A2A179
:1033E000A09F9F9E9D9C9C9B9A9999989797969534
:1033F00095949393929191908F8F8E8E8D8C8C8BD0
:103400008B8A898988888787868585848483838257
:10341000828181800000FF070000F87F10F00042E9
:1034200048BF4042B0FA80F310FA03F10AD0C3F16A
:103430001D0303F580634FEA415002EB035202EB98
:10344000D12170474FF000007047B0FA80F310FAB6
:1034500003F10AD0C3F11D0303F580634FEA415025
:103460004FEA035202EBD12170474FF00000704742
:1034700051EA030C17D41CF5801F58BFBCF5801F00
:1034800000F10680994218BF704708BF904270470C
:1034900007D711F5801F58BF13F5801F19D4994223
:1034A0007047894270471CF5801F08D5BCF5801F06
:1034B000F7D58B4218BF704708BF824270474FF460
:1034C000001C1CEB410F38BF1CEB430F01D28B4299
:1034D000704770B500F0B2F8922449004FF00051E7
:1034E0004FF08053FFF736BEDFF848C170B51CEAD5
:1034F000111E1EBF1CEA13159EEA0C0F95EA0C0F55
:1035000000F06F8081EA030423EA4C134EEAD47E74
:1035100021EA4C1141F4801143F48013AE44A1FB25
:10352000024CA0FB0365AEF17F7E361955EB0C050E
:10353000A1FB034C4CF10003A0FB021C16EB0C0694
:10354000654153F10003094218BF46F0010613F428
:10355000007F0BD14FEA03314FEA0530340341EAD3
:10356000155140EA16506FF003020AE04FEAC321FA
:103570004FEAC520F40241EA555140EA56506FF037
:10358000020202EB2E4201EB025585EACE710AD00F
:103590005FEA440C18BF24F0004450F1000041F1F0
:1035A000000120EAD47040F2FE7C624500D270BD7A
:1035B000A84214BF4FF080444FF04044002E08BF93
:1035C0000024BEF1806FA8BFA1F1C041BDE87040EA
:1035D00080F282804FF0000001F1C04101F0004113
:1035E00070479EEA0C0F0CEA131518BF95EA0C0FF2
:1035F00006D04FF0000081EA030E0EF0004170BDCE
:1036000000F01CF88900013E00F007B800F009B88E
:103610004FEA430C5FEA5C5C08D081EA030100F0EA
:103620005BB84FEA410C5FEA5C5CF6D14FF00000FA
:10363000014970470000FF070000F87F0EF1020EFD
:103640002EF0030E5EF8046B364205D4012A43EBDC
:10365000030515F5001F12D8012841EB010C1CF5DC
:10366000001F0CD80ED14FEAD17C15F5001F0CEBD2
:103670004C0C0CF1020C08BF4CEBD37C04E04FF077
:10368000080C01E04FEAD37C0CEB4C0526FA05F65A
:1036900006F00706B6F1040C06D20EEB860CBDE868
:1036A00070404CF0010C6047DFE80CF0090B02029F
:1036B0004FF000414FF00000A1F5002170BD194608
:1036C0001046012851EB010418BFD4F5001484BF43
:1036D000002001F0004170BD0808A0F500114FEA7C
:1036E0003101704753EA010C17D41CF5801F58BFF5
:1036F000BCF5801F00F106808B4218BF704708BFE1
:103700008242704707D713F5801F58BF11F5801FFD
:1037100019D48B4270479B4270471CF5801F08D517
:10372000BCF5801FF7D5994218BF704708BF90427B
:1037300070474FF4001C1CEB430F38BF1CEB410FCC
:1037400001D2994270470FB40CBC03BCFFF7C1BE55
:1037500091EA030F10B581F000413FF553AC83F0BF
:10376000004300F0EFB800002DE9F04101F5801CA6
:10377000BCF5001FC0F2C3804FEA115C21EA0C5176
:103780000CF1FD0C41F480115FEA5C0C0CF5C07C7F
:1037900001D3400049413DA4890241EA905187028A
:1037A0008E0E0A0CA45D04FB04F602FB06F6C6F1BD
:1037B0004046A4FB0662F60D46EA422606FB06F4E6
:1037C000A4FB01235242C3F1404338BF5B1EA6FB5A
:1037D00002420024E6FB0324D20B42EA4446A6FB45
:1037E0000623A1FB02E2A3FB07E4A4184FF00002AA
:1037F00052F10002E3FB01426442C2F1404E38BF85
:10380000AEF1010EA6FB04234FF00002E6FB0E32E0
:10381000A2FB03464FF00004B61954F10004E2FB8A
:103820000264A1FB06E6A4FB07E816EB08064FF0CE
:10383000000858F10008E4FB01687642C8F14058DE
:1038400038BFA8F10108A2FB06E4A3FB08E52D1987
:103850004FF0000454F10004E2FB0854A1FB05E61C
:10386000A7FB04E818EB06084FF0000656F1000627
:10387000E1FB048618F1200556F10006A809A8F11D
:103880001B08B10908F03F08B8F10A0F40EA86604A
:103890001CD901EB0C51BDE8F08100BFFCF5EEE84E
:1038A000E2DDD8D3CFCBC7C3C0BDB9B6B4B1AEACDF
:1038B000A9A7A5A3A19F9D9B9A9896959392908F57
:1038C0008D8C8B898887868584838281A0FB0068A4
:1038D00000FB01F208EB4208B8EB872807D5341843
:1038E00058EB0104D5D5401C51F10001D1E7341A41
:1038F00078EB0104CDD4401E71F10001C9E75FEA05
:103900004C0C5FEA9C5C0DD105D34FF0000001F038
:103910000041BDE8F081BDE8F04170B5FFF78EFED3
:103920006DDBFFBEBDE8F0414FF00000004970477D
:103930000000F87F10B591EA030F48BF83F0004301
:103940003FF560AB841A71EB030C07D212198CF0AF
:10395000004C43EB0C03001B61EB0C01DFF8A4E10E
:103960004FEA1154A4EB135C1EEA430F18BF9EEA02
:10397000445F00F0B08023EA6E03524221EA045112
:10398000C3EB6E0338BF5B1EDCF1200E25D322FA99
:103990000CFE10EB0E0043FA0CFE41EB0E01CCF1D5
:1039A000200E03FA0EFE10EB0E0051F10001CCF1D7
:1039B000200E29D412FA0EF201EB0451BDE810409A
:1039C00058BF7047401C1CBFB2F1004F7047002821
:1039D0000CBF491C20F00100704712EB020E43EBB4
:1039E000030218BF4FF0010E4EEA4202ACF1200C68
:1039F000DCF11E0E54D943FA0CFE10EB0E0051F10F
:103A0000FF31CCF11E0ED5D50EF1010E12FA0EFECD
:103A1000404141EB010101EB445C5FEA5C5C10D981
:103A200010EBDE7001EB045138BFBEF1004FBDE872
:103A3000104018BF704700280CBF491C20F001003F
:103A4000704730D24FEAD42C11F5001124F40064F1
:103A50001BD0B1FA81F20B3AA41AA41ED2F12003B2
:103A6000914030FA03F31943904001EBCC71002CE4
:103A700001EB0451BDE81040A8BF704701F1C041FF
:103A80004FF0000001F000417047B0FA80F310FAE7
:103A900003F100D110BDE41A173C4805C90AE4E758
:103AA00001EB045110BD491001EB0451BDE8104079
:103AB0004FEA300002E04FF0000170474A0008BFB3
:103AC0000042F8D0B2F5001F28BF704701F0004156
:103AD0004FF0000070479EEA445F07D011EA5E0F86
:103AE000BDE8104004BF002100207047BDE8104031
:103AF00070B5FFF7A3FD00BF40DFF63E83F0004145
:103B0000104670470000E0FF43004FEAD30C4FEA35
:103B10003C0C43401FBF40070CF1605113F0FE4FB7
:103B200070471CF0006F03D100200CF0004170477B
:103B30000CF0004343EA507010B540EACC0000F0AE
:103B400087F900BF000000924FEA0001FFF7C4BDF3
:103B50004FF000414FF00000A1F500217047000038
:103B600090EA010F48BF81F0004100F1C481421A80
:103B70003CBF801A89184FEAD0524FF07F4C1CEAA4
:103B8000410FA2EBD15318BF9CEA026F00F03B80BB
:103B90004FF0004C4CEA00204CEA012121FA03FCD2
:103BA00010EB0C0C1ED202F1FF325FEA1C2040EB3E
:103BB000C25038BF70471CF07F0F4FEA400C18BF4F
:103BC000BCF17F4F38BF7047C3F12003994008BF55
:103BD00020F00100BCF17F4F38BF7047A0F1C0401A
:103BE00000F07CB94FEA3C00000A40EBC25028BF0D
:103BF0001CF0FF0F4FEA400CE6D018BFBCF17F4F1E
:103C000038BF7047EAE79CEA026F05D010EA5C0F04
:103C100008BF00F00040704710B500F019F900BF70
:103C200064FBBE3E401058BFC0F14040491058BF31
:103C3000C1F140418142EFF3008070474FF47F0CA7
:103C40001CEAD0121EBF1CEAD11392EA0C0F93EAB1
:103C50000C0F00F0858090EA010F48BF42F480729B
:103C600040F4000C41F400002CF07F4120F07F4034
:103C700000B58142A2EB03020FF2081CACEB504EE0
:103C8000C0F100009EF800E04FEA4E0E00FB0EFC73
:103C900038BF49004FEA2C1C02F5FA020CFB0EF368
:103CA0004FEACE1E4FEA112C4FEAC1210EEB635EA4
:103CB00042EB22420EFB0CFC4FEA1C5300FB0311AB
:103CC0004FEA112C4FEA01310EFB0CFC4FEADC4CA1
:103CD00000FB0C11C14228BF09184CEB03335DF8FF
:103CE00004EB10EB410143EBC250B2F57C0F38BF3F
:103CF000704729D512F0F00F1CBF00F1C04000F052
:103D000000407047008182838485868788898B8CF8
:103D10008D8E8F919293959697999A9C9D9FA0A234
:103D2000A3A5A7A8AAACAEB0B2B3B5B7B9BCBEC084
:103D3000C2C5C7C9CCCED1D4D7D9DCDFE2E6E9EC25
:103D4000F0F3F7FAFE0000004FEA400C0CF1807C23
:103D5000BCF17E4F28BF7047B0F1C04000F0BEB844
:103D600090EA010F0CEAD11348BF42F48072624519
:103D700038BF634507D213F47F0F16D080EA0100E5
:103D800000F00040704710B500F062F8097EFC3E7C
:103D900000F005B880EA010000F00040704780EABA
:103DA000010000F0004000F099B812F47F0F04BF4A
:103DB0000248704780EA010000F090B80000C07F20
:103DC000B0FA80F310FA03F2C3F19D030AD0D905CB
:103DD00001EB1220530638BF704700F1010008BF05
:103DE00020F001007047000050EA010C00F1138040
:103DF0001CF5000F58BFBCF5000F01D48842704776
:103E000007D710F5000F58BF11F5000F15D48842E1
:103E10007047894270471CF5000F04D5BCF5000FB0
:103E2000F7D5814270474FF0807C1CEB400F38BFC4
:103E30001CEB410F01D28142704710B500F008F829
:103E4000922449004FF000504FF08051FFF7EABE36
:103E50000EF1020E2EF0030E5EF8044B244204D441
:103E60004FEA4102B2F17F4F11D84FEA4003B3F15C
:103E70007F4F0CD80ED14FEAD07CB2F17F4F0CEBC4
:103E80004C0C0CF1020C08BF4CEBD17C04E04FF061
:103E9000080C01E04FEAD17C0CEB4C0324FA03F44C
:103EA00004F00704B4F1040C06D20EEB840CBDE858
:103EB00010404CF0010C6047DFE80CF007080202EC
:103EC0004FF00040A0F5800010BD0846420018BF2A
:103ED000D2F1807288BF00F0004010BDFF2141EA9E
:103EE000D050C0057047000090EA010F48BF81F034
:103EF00000413FF53CAE421A04D882F00042A0EBEC
:103F0000020011444FEAD0524FF07F4C1CEA410F9F
:103F1000A2EBD15318BF9CEA026F4AD04FF0004C7D
:103F20004CEA00204CEA012121FA03FCB0EB0C0C16
:103F30000FD412F0FE0F36D05FEA4C001DD50012F0
:103F400040EBC25038BF70471CF03F0F18BF70479E
:103F50000BE0A2F101025FEA1C2040EBC25038BF27
:103F600070471CF07F0F18BF7047C3F120039940C2
:103F700014BF401E20F00100704780084FEA122352
:103F800008BF7047B0FA80FCA2EB0C02CCF1280C01
:103F900060FA0CF093EA122F04BF00EBC250704796
:103FA0004FEAC3707047130A5FEADC1008BF70471E
:103FB000F6E79CEA026F04D010EA5C0F08BF00200D
:103FC000704710B5FFF744FF40DFF63E81F0004038
:103FD0007047FCF720BB0CF00F03092B08BF08202B
:103FE00000F059800A2B0BD0082B18BF704708BF70
:103FF0001CF0400F0AD04FF000004FF00001704756
:104000001CF0400F18BF4FF0004070471CF0100F1D
:1040100008D020F0704300F07F4242EAD3014FEA1B
:104020004370704700F0604021F07F4242EA000296
:1040300001F07F4040EA727070474FF0FF0C4CF483
:10404000E06C1CEA11531CBF9CEA030C9445C2BFF0
:10405000DA4201EB02517047002B0DD0BCF1000F8A
:104060000FD0002A01F00041A4BF41F0E04141F02F
:104070007F614FF00000704701F000414FF00000F9
:10408000704750EA01334FF09B0C18BF4CF0806C26
:104090007FF458A870471CF4801F11D01CF4E02F47
:1040A00003D06FEACC31490070474FF04050EFF336
:1040B000008222F0704242EA000282F300887047D8
:1040C0004FF0000070470000000000000000F03FCB
:1040D000000000000000F83F0000000000000000A9
:1040E0000000004003B8E23F0000000000000000B4
:1040F00006D0CF43EBFD4C3E033333333333E33F42
:10410000FFAB6FDBB66DDB3F4D268F515555D53F6D
:1041100001411DA96074D13F65DBC9934A86CD3F3B
:10412000EF4E454A287ECA3F3E5555555555C53F29
:1041300093BDBE166CC166BF2CDE25AF6A56113F1B
:10414000F16BD2C541BDBBBED0A4BE726937663E1D
:10415000000000000000000002400000000000A07D
:104160000000000005400000000000C80000000042
:104170000C4000000000409C0000000019400000BE
:104180000020BCBE0000000034400000BFC91B8EF0
:1041900000000004B5400000504BCFD06607E2CFCE
:1041A000010000006C4100003E8251AADFEEA734FE
:1041B00001000000D9420000DCB5A0E23A301F97B0
:1041C000FFFFFFFFB4450000FD25A0C8E9A3C14FD4
:1041D000FFFFFFFFFF3F0000000000800000000025
:1041E000FF3F00000000008000000000284200089F
:1041F000000000205C000000280100088442000844
:104200005C00002094060000440100081C0000002F
:1042100043000000F8FFFFFF0C0000000E0000004C
:104220000F0000002E000000000000000000000051
:10423000000000000000000000000000000000007E
:10424000000000000000000000000000000000006E
:10425000000000000000000000000000000000005E
:10426000000000000000000000000000000000004E
:10427000000000000000000000000000000000003E
:04428000000000003A
:04000005080001A945
:00000001FF
